:100000000C9446000C9450000C9450000C9450003A
:100010000C9450000C9450000C9450000C94500020
:100020000C9450000C9450000C9450000C94500010
:100030000C9450000C9450000C9450000C94500000
:100040000C9450000C9450000C9450000C945000F0
:100050000C9450000C9450000C9450000C945000E0
:100060000C9450000C9450000C9450000C945000D0
:100070000C9450000C9450000C9450000C945000C0
:100080000C9450000C9450000C94500011241FBE8E
:10009000CFEFD0E1DEBFCDBF0E9461000C947B00AA
:1000A0000C94000080919B0087FFFCCF80919C0006
:1000B000089502C080939C0090919B0095FFFACF19
:1000C000089510929B0088E180939A0086E08093C7
:1000D0009D001092980087E68093990081E40E9429
:1000E00059008FEF97EAA1E681509040A040E1F7D8
:0A00F00000C00000F3CFF894FFCF2A
:00000001FF
