:100000000C9446000C9450000C9450000C9450003A
:100010000C9450000C9450000C9450000C94500020
:100020000C9450000C9450000C9450000C94500010
:100030000C9450000C9450000C9450000C94500000
:100040000C9450000C9450000C9450000C945000F0
:100050000C9450000C9450000C9450000C945000E0
:100060000C9450000C9450000C9450000C945000D0
:100070000C9450000C9450000C9450000C945000C0
:100080000C9450000C9450000C94500011241FBE8E
:10009000CFEFD0E1DEBFCDBF0E9452000C946E00C6
:1000A0000C9400000F931F938FEF8ABB1BBA80E064
:1000B00090E041E09C0121703070019621153105DE
:1000C00011F44BBB01C01BBA0FEF13EC29E0015038
:1000D00010402040E1F700C00000ECCFF894FFCFC3
:00000001FF
