:100000000C9446000C9450000C9450000C9450003A
:100010000C9450000C9450000C9450000C94500020
:100020000C9450000C9450000C9450000C94500010
:100030000C9450000C9450000C9450000C94500000
:100040000C9450000C9450000C9450000C945000F0
:100050000C9450000C9450000C9450000C945000E0
:100060000C9450000C9450000C9450000C945000D0
:100070000C9450000C9450000C9450000C945000C0
:100080000C9450000C9450000C94500011241FBE8E
:10009000CFEFD0E1DEBFCDBF0E945F000C946700C0
:1000A0000C9400009093900089B988E18AB986E0A9
:1000B0008093950008955D9BFECF8CB9089587E6E7
:1000C00090E00E9452008BE40E945B00FCCFF89409
:0200D000FFCF60
:00000001FF
